{
  "contractName": "IYieldTrinityDicoverer",
  "abi": [
    {
      "inputs": [
        {
          "internalType": "address",
          "name": "_usdt",
          "type": "address"
        },
        {
          "internalType": "address",
          "name": "_weth",
          "type": "address"
        }
      ],
      "stateMutability": "nonpayable",
      "type": "constructor"
    },
    {
      "inputs": [],
      "name": "usdt",
      "outputs": [
        {
          "internalType": "address",
          "name": "",
          "type": "address"
        }
      ],
      "stateMutability": "view",
      "type": "function"
    },
    {
      "inputs": [],
      "name": "weth",
      "outputs": [
        {
          "internalType": "address",
          "name": "",
          "type": "address"
        }
      ],
      "stateMutability": "view",
      "type": "function"
    },
    {
      "inputs": [
        {
          "internalType": "address",
          "name": "_router",
          "type": "address"
        },
        {
          "internalType": "address",
          "name": "_token1",
          "type": "address"
        },
        {
          "internalType": "address",
          "name": "_token2",
          "type": "address"
        },
        {
          "internalType": "address",
          "name": "_factory",
          "type": "address"
        },
        {
          "internalType": "uint256",
          "name": "_amount",
          "type": "uint256"
        }
      ],
      "name": "quotes",
      "outputs": [
        {
          "internalType": "uint256",
          "name": "currentPrice",
          "type": "uint256"
        }
      ],
      "stateMutability": "view",
      "type": "function"
    },
    {
      "inputs": [
        {
          "internalType": "address",
          "name": "_router",
          "type": "address"
        },
        {
          "internalType": "address",
          "name": "_pair",
          "type": "address"
        },
        {
          "internalType": "uint256",
          "name": "_amount",
          "type": "uint256"
        },
        {
          "internalType": "address",
          "name": "_factory",
          "type": "address"
        }
      ],
      "name": "quoteByPair",
      "outputs": [
        {
          "internalType": "uint256",
          "name": "currentQuote",
          "type": "uint256"
        }
      ],
      "stateMutability": "view",
      "type": "function"
    },
    {
      "inputs": [
        {
          "internalType": "address",
          "name": "_token1",
          "type": "address"
        },
        {
          "internalType": "address",
          "name": "_token2",
          "type": "address"
        },
        {
          "internalType": "address",
          "name": "_route",
          "type": "address"
        },
        {
          "internalType": "address",
          "name": "_factory",
          "type": "address"
        }
      ],
      "name": "getLastPrice",
      "outputs": [
        {
          "internalType": "uint256",
          "name": "lastRate",
          "type": "uint256"
        }
      ],
      "stateMutability": "view",
      "type": "function"
    },
    {
      "inputs": [
        {
          "internalType": "address",
          "name": "_token",
          "type": "address"
        },
        {
          "internalType": "address",
          "name": "_router",
          "type": "address"
        },
        {
          "internalType": "address",
          "name": "_factory",
          "type": "address"
        }
      ],
      "name": "priceInWETH",
      "outputs": [
        {
          "internalType": "uint256",
          "name": "price",
          "type": "uint256"
        }
      ],
      "stateMutability": "view",
      "type": "function"
    },
    {
      "inputs": [
        {
          "internalType": "address",
          "name": "_token",
          "type": "address"
        },
        {
          "internalType": "address",
          "name": "_router",
          "type": "address"
        },
        {
          "internalType": "address",
          "name": "_factory",
          "type": "address"
        }
      ],
      "name": "priceInUSDT",
      "outputs": [
        {
          "internalType": "uint256",
          "name": "price",
          "type": "uint256"
        }
      ],
      "stateMutability": "view",
      "type": "function"
    },
    {
      "inputs": [
        {
          "internalType": "address",
          "name": "_factory",
          "type": "address"
        }
      ],
      "name": "getLastPair",
      "outputs": [
        {
          "internalType": "address",
          "name": "pair",
          "type": "address"
        }
      ],
      "stateMutability": "view",
      "type": "function"
    },
    {
      "inputs": [
        {
          "internalType": "address[]",
          "name": "routes",
          "type": "address[]"
        },
        {
          "internalType": "address[]",
          "name": "path",
          "type": "address[]"
        },
        {
          "internalType": "uint256",
          "name": "amountIn",
          "type": "uint256"
        }
      ],
      "name": "predictFuturePrices",
      "outputs": [
        {
          "internalType": "uint256[]",
          "name": "prices",
          "type": "uint256[]"
        }
      ],
      "stateMutability": "view",
      "type": "function"
    },
    {
      "inputs": [
        {
          "internalType": "address",
          "name": "_route",
          "type": "address"
        },
        {
          "internalType": "address[]",
          "name": "path",
          "type": "address[]"
        },
        {
          "internalType": "uint256",
          "name": "_amount",
          "type": "uint256"
        }
      ],
      "name": "_predictPrice",
      "outputs": [
        {
          "internalType": "uint256",
          "name": "price",
          "type": "uint256"
        }
      ],
      "stateMutability": "view",
      "type": "function"
    },
    {
      "inputs": [
        {
          "internalType": "address",
          "name": "_token1",
          "type": "address"
        },
        {
          "internalType": "address",
          "name": "_token2",
          "type": "address"
        },
        {
          "internalType": "address",
          "name": "_factory",
          "type": "address"
        }
      ],
      "name": "hasLiquidity",
      "outputs": [
        {
          "internalType": "bool",
          "name": "hasliquidity",
          "type": "bool"
        }
      ],
      "stateMutability": "view",
      "type": "function"
    },
    {
      "inputs": [
        {
          "internalType": "address",
          "name": "_token1",
          "type": "address"
        },
        {
          "internalType": "address",
          "name": "_token2",
          "type": "address"
        },
        {
          "internalType": "address",
          "name": "_factory",
          "type": "address"
        }
      ],
      "name": "tokensLiquidity",
      "outputs": [
        {
          "internalType": "uint256",
          "name": "base",
          "type": "uint256"
        },
        {
          "internalType": "uint256",
          "name": "token",
          "type": "uint256"
        }
      ],
      "stateMutability": "view",
      "type": "function"
    },
    {
      "inputs": [
        {
          "internalType": "address",
          "name": "_pair",
          "type": "address"
        }
      ],
      "name": "getTokenFromPair",
      "outputs": [
        {
          "internalType": "address",
          "name": "tokenAddress",
          "type": "address"
        },
        {
          "internalType": "bool",
          "name": "isValid",
          "type": "bool"
        }
      ],
      "stateMutability": "view",
      "type": "function"
    },
    {
      "inputs": [
        {
          "internalType": "address",
          "name": "pair",
          "type": "address"
        }
      ],
      "name": "getTokenInfoFromPair",
      "outputs": [
        {
          "components": [
            {
              "internalType": "string",
              "name": "name",
              "type": "string"
            },
            {
              "internalType": "string",
              "name": "symbol",
              "type": "string"
            },
            {
              "internalType": "uint256",
              "name": "decimals",
              "type": "uint256"
            },
            {
              "internalType": "uint256",
              "name": "totalSupply",
              "type": "uint256"
            }
          ],
          "internalType": "struct IYieldTrinityDicoverer.TokenInfo",
          "name": "tokenInfo",
          "type": "tuple"
        }
      ],
      "stateMutability": "view",
      "type": "function"
    },
    {
      "inputs": [
        {
          "internalType": "address",
          "name": "_token",
          "type": "address"
        }
      ],
      "name": "getTokenInfo",
      "outputs": [
        {
          "components": [
            {
              "internalType": "string",
              "name": "name",
              "type": "string"
            },
            {
              "internalType": "string",
              "name": "symbol",
              "type": "string"
            },
            {
              "internalType": "uint256",
              "name": "decimals",
              "type": "uint256"
            },
            {
              "internalType": "uint256",
              "name": "totalSupply",
              "type": "uint256"
            }
          ],
          "internalType": "struct IYieldTrinityDicoverer.TokenInfo",
          "name": "",
          "type": "tuple"
        }
      ],
      "stateMutability": "view",
      "type": "function"
    },
    {
      "inputs": [
        {
          "internalType": "address",
          "name": "_token1",
          "type": "address"
        },
        {
          "internalType": "address",
          "name": "_token2",
          "type": "address"
        },
        {
          "internalType": "address",
          "name": "_factory",
          "type": "address"
        }
      ],
      "name": "getPairAddress",
      "outputs": [
        {
          "internalType": "address",
          "name": "",
          "type": "address"
        }
      ],
      "stateMutability": "view",
      "type": "function"
    },
    {
      "inputs": [
        {
          "internalType": "address",
          "name": "_pair",
          "type": "address"
        },
        {
          "internalType": "address",
          "name": "_factory",
          "type": "address"
        }
      ],
      "name": "getTokenPairReserves",
      "outputs": [
        {
          "internalType": "uint256",
          "name": "token0Reserve",
          "type": "uint256"
        },
        {
          "internalType": "uint256",
          "name": "reserve1Reserve",
          "type": "uint256"
        }
      ],
      "stateMutability": "view",
      "type": "function"
    },
    {
      "inputs": [
        {
          "internalType": "address",
          "name": "_pair",
          "type": "address"
        }
      ],
      "name": "getTokensFromPair",
      "outputs": [
        {
          "internalType": "address",
          "name": "token0",
          "type": "address"
        },
        {
          "internalType": "address",
          "name": "token1",
          "type": "address"
        }
      ],
      "stateMutability": "view",
      "type": "function"
    },
    {
      "inputs": [
        {
          "internalType": "address[]",
          "name": "routes",
          "type": "address[]"
        },
        {
          "internalType": "address[]",
          "name": "path",
          "type": "address[]"
        },
        {
          "internalType": "uint256",
          "name": "amountIn",
          "type": "uint256"
        }
      ],
      "name": "getRouteOutputs",
      "outputs": [
        {
          "internalType": "uint256[]",
          "name": "outputs",
          "type": "uint256[]"
        }
      ],
      "stateMutability": "view",
      "type": "function"
    },
    {
      "inputs": [
        {
          "internalType": "address",
          "name": "route",
          "type": "address"
        },
        {
          "internalType": "address[]",
          "name": "path",
          "type": "address[]"
        },
        {
          "internalType": "uint256",
          "name": "amountIn",
          "type": "uint256"
        }
      ],
      "name": "_getRouteOutput",
      "outputs": [
        {
          "internalType": "uint256",
          "name": "",
          "type": "uint256"
        }
      ],
      "stateMutability": "view",
      "type": "function"
    }
  ],
  "bytecode": "0x60806040523480156200001157600080fd5b506040516200261038038062002610833981016040819052620000349162000083565b600180546001600160a01b039384166001600160a01b03199182161790915560028054929093169116179055620000ba565b80516001600160a01b03811681146200007e57600080fd5b919050565b6000806040838503121562000096578182fd5b620000a18362000066565b9150620000b16020840162000066565b90509250929050565b61254680620000ca6000396000f3fe608060405234801561001057600080fd5b506004361061012c5760003560e01c80639e17e1b1116100ad578063c4bca65f11610071578063c4bca65f1461029f578063d2b7686d146102b2578063d3ddb5dc146102c5578063de3b8a2b146102d8578063e4e865b5146102eb5761012c565b80639e17e1b114610224578063a7765a9f14610237578063b62def8f1461024a578063bbed436d1461025d578063c0225aa11461027e5761012c565b80635cb9d30b116100f45780635cb9d30b146101ab578063611b1cd2146101cb5780637324f3e5146101de578063985d84b3146101fe5780639db17d0b146102115761012c565b806318aa0370146101315780631f69565f1461015b5780632f48ab7d1461017b5780633fc8cef314610190578063524d01f814610198575b600080fd5b61014461013f366004611bf1565b61030b565b60405161015292919061227f565b60405180910390f35b61016e610169366004611bb9565b6107c9565b604051610152919061217a565b6101836109ca565b60405161015291906120e2565b6101836109d9565b6101836101a6366004611c29565b6109e8565b6101be6101b9366004611cce565b610a73565b60405161015291906121d4565b6101836101d9366004611bb9565b610b2d565b6101f16101ec366004611e8d565b610c33565b604051610152919061212b565b61014461020c366004611c29565b610d50565b6101be61021f366004611d31565b610fd3565b61016e610232366004611bb9565b611039565b6101be610245366004611c73565b61117b565b6101be610258366004611c29565b611373565b61027061026b366004611bb9565b61140f565b604051610152929190612110565b61029161028c366004611bb9565b61154f565b6040516101529291906120f6565b6101be6102ad366004611dd2565b611643565b6101be6102c0366004611d78565b611809565b6101be6102d3366004611c29565b6118d5565b6101f16102e6366004611e8d565b61196f565b6102fe6102f9366004611c29565b611a4e565b604051610152919061216f565b60008060008061031a8661154f565b91509150610329828287611a4e565b61033b576000809350935050506107c2565b600080876001600160a01b0316630902f1ac6040518163ffffffff1660e01b815260040160606040518083038186803b15801561037757600080fd5b505afa15801561038b573d6000803e3d6000fd5b505050506040513d601f19601f820116820180604052508101906103af919061201e565b506001600160701b031691506001600160701b0316915060008490506000849050806001600160a01b031663313ce5676040518163ffffffff1660e01b815260040160206040518083038186803b15801561040957600080fd5b505afa15801561041d573d6000803e3d6000fd5b505050506040513d601f19601f820116820180604052508101906104419190612079565b60ff16826001600160a01b031663313ce5676040518163ffffffff1660e01b815260040160206040518083038186803b15801561047d57600080fd5b505afa158015610491573d6000803e3d6000fd5b505050506040513d601f19601f820116820180604052508101906104b59190612079565b60ff1610156105c6576105bf826001600160a01b031663313ce5676040518163ffffffff1660e01b815260040160206040518083038186803b1580156104fa57600080fd5b505afa15801561050e573d6000803e3d6000fd5b505050506040513d601f19601f820116820180604052508101906105329190612079565b826001600160a01b031663313ce5676040518163ffffffff1660e01b815260040160206040518083038186803b15801561056b57600080fd5b505afa15801561057f573d6000803e3d6000fd5b505050506040513d601f19601f820116820180604052508101906105a39190612079565b6105ad919061245e565b6105b890600a612357565b8590611b2c565b93506107b8565b816001600160a01b031663313ce5676040518163ffffffff1660e01b815260040160206040518083038186803b1580156105ff57600080fd5b505afa158015610613573d6000803e3d6000fd5b505050506040513d601f19601f820116820180604052508101906106379190612079565b60ff16816001600160a01b031663313ce5676040518163ffffffff1660e01b815260040160206040518083038186803b15801561067357600080fd5b505afa158015610687573d6000803e3d6000fd5b505050506040513d601f19601f820116820180604052508101906106ab9190612079565b60ff1610156107b8576107b5816001600160a01b031663313ce5676040518163ffffffff1660e01b815260040160206040518083038186803b1580156106f057600080fd5b505afa158015610704573d6000803e3d6000fd5b505050506040513d601f19601f820116820180604052508101906107289190612079565b836001600160a01b031663313ce5676040518163ffffffff1660e01b815260040160206040518083038186803b15801561076157600080fd5b505afa158015610775573d6000803e3d6000fd5b505050506040513d601f19601f820116820180604052508101906107999190612079565b6107a3919061245e565b6107ae90600a612357565b8490611b2c565b92505b5091955093505050505b9250929050565b6107d1611b38565b60008290506040518060800160405280826001600160a01b03166306fdde036040518163ffffffff1660e01b815260040160006040518083038186803b15801561081a57600080fd5b505afa15801561082e573d6000803e3d6000fd5b505050506040513d6000823e601f3d908101601f191682016040526108569190810190611f8e565b8152602001826001600160a01b03166395d89b416040518163ffffffff1660e01b815260040160006040518083038186803b15801561089457600080fd5b505afa1580156108a8573d6000803e3d6000fd5b505050506040513d6000823e601f3d908101601f191682016040526108d09190810190611f8e565b8152602001826001600160a01b031663313ce5676040518163ffffffff1660e01b815260040160206040518083038186803b15801561090e57600080fd5b505afa158015610922573d6000803e3d6000fd5b505050506040513d601f19601f820116820180604052508101906109469190612079565b60ff168152602001826001600160a01b03166318160ddd6040518163ffffffff1660e01b815260040160206040518083038186803b15801561098757600080fd5b505afa15801561099b573d6000803e3d6000fd5b505050506040513d601f19601f820116820180604052508101906109bf9190612061565b90529150505b919050565b6001546001600160a01b031681565b6002546001600160a01b031681565b60405163e6a4390560e01b81526000906001600160a01b0383169063e6a4390590610a1990879087906004016120f6565b60206040518083038186803b158015610a3157600080fd5b505afa158015610a45573d6000803e3d6000fd5b505050506040513d601f19601f82011682018060405250810190610a699190611bd5565b90505b9392505050565b6000610a80858585611a4e565b610a8c57506000610b24565b600080610a9a878787610d50565b604051632b58577b60e21b815291935091506001600160a01b0389169063ad615dec90610acf9087908690869060040161228d565b60206040518083038186803b158015610ae757600080fd5b505afa158015610afb573d6000803e3d6000fd5b505050506040513d601f19601f82011682018060405250810190610b1f9190612061565b925050505b95945050505050565b600080826001600160a01b031663574f2ba36040518163ffffffff1660e01b815260040160206040518083038186803b158015610b6957600080fd5b505afa158015610b7d573d6000803e3d6000fd5b505050506040513d601f19601f82011682018060405250810190610ba19190612061565b905060006001600160a01b038416631e3dd18b610bbf600185612447565b6040518263ffffffff1660e01b8152600401610bdb91906121d4565b60206040518083038186803b158015610bf357600080fd5b505afa158015610c07573d6000803e3d6000fd5b505050506040513d601f19601f82011682018060405250810190610c2b9190611bd5565b949350505050565b606060008567ffffffffffffffff811115610c5e57634e487b7160e01b600052604160045260246000fd5b604051908082528060200260200182016040528015610c87578160200160208202803683370190505b50905060005b86811015610d4557610d08888883818110610cb857634e487b7160e01b600052603260045260246000fd5b9050602002016020810190610ccd9190611bb9565b878780806020026020016040519081016040528093929190818152602001838360200280828437600092019190915250899250611643915050565b828281518110610d2857634e487b7160e01b600052603260045260246000fd5b602090810291909101015280610d3d816124b1565b915050610c8d565b509695505050505050565b600080610d5e858585611a4e565b610d6d57506000905080610fcb565b6000610d7a8686866109e8565b9050600080826001600160a01b0316630902f1ac6040518163ffffffff1660e01b815260040160606040518083038186803b158015610db857600080fd5b505afa158015610dcc573d6000803e3d6000fd5b505050506040513d601f19601f82011682018060405250810190610df0919061201e565b506001600160701b031691506001600160701b0316915060008290506000829050896001600160a01b03166395d89b416040518163ffffffff1660e01b815260040160006040518083038186803b158015610e4a57600080fd5b505afa158015610e5e573d6000803e3d6000fd5b505050506040513d6000823e601f3d908101601f19168201604052610e869190810190611f8e565b604051602001610e9691906120c6565b60405160208183030381529060405280519060200120856001600160a01b0316630dfe16816040518163ffffffff1660e01b815260040160206040518083038186803b158015610ee557600080fd5b505afa158015610ef9573d6000803e3d6000fd5b505050506040513d601f19601f82011682018060405250810190610f1d9190611bd5565b6001600160a01b03166395d89b416040518163ffffffff1660e01b815260040160006040518083038186803b158015610f5557600080fd5b505afa158015610f69573d6000803e3d6000fd5b505050506040513d6000823e601f3d908101601f19168201604052610f919190810190611f8e565b604051602001610fa191906120c6565b6040516020818303038152906040528051906020012014610fc25750819050825b90955093505050505b935093915050565b6000806000610fe18661154f565b91509150610ff0828286611a4e565b610fff57600092505050610c2b565b600254829082906001600160a01b038084169116141561101f5750819050825b61102c898383898b610a73565b9998505050505050505050565b611041611b38565b6000826001600160a01b0316630dfe16816040518163ffffffff1660e01b815260040160206040518083038186803b15801561107c57600080fd5b505afa158015611090573d6000803e3d6000fd5b505050506040513d601f19601f820116820180604052508101906110b49190611bd5565b90506000836001600160a01b031663d21220a76040518163ffffffff1660e01b815260040160206040518083038186803b1580156110f157600080fd5b505afa158015611105573d6000803e3d6000fd5b505050506040513d601f19601f820116820180604052508101906111299190611bd5565b6002549091506001600160a01b038381169116146111535761114a816107c9565b925050506109c5565b6002546001600160a01b038281169116146111715761114a816107c9565b61114a60006107c9565b6040805160028082526060820183526000928392919060208301908036833701905050905085816000815181106111c257634e487b7160e01b600052603260045260246000fd5b60200260200101906001600160a01b031690816001600160a01b031681525050848160018151811061120457634e487b7160e01b600052603260045260246000fd5b60200260200101906001600160a01b031690816001600160a01b03168152505061122f868685611a4e565b61123d576000915050610c2b565b6000846001600160a01b031663d06ca61f886001600160a01b031663313ce5676040518163ffffffff1660e01b815260040160206040518083038186803b15801561128757600080fd5b505afa15801561129b573d6000803e3d6000fd5b505050506040513d601f19601f820116820180604052508101906112bf9190612079565b6112ca90600a612357565b846040518363ffffffff1660e01b81526004016112e8929190612229565b60006040518083038186803b15801561130057600080fd5b505afa158015611314573d6000803e3d6000fd5b505050506040513d6000823e601f3d908101601f1916820160405261133c9190810190611efe565b90508060018151811061135f57634e487b7160e01b600052603260045260246000fd5b602002602001015192505050949350505050565b60015460009081906113909086906001600160a01b0316856109e8565b90506001600160a01b0381166113aa576000915050610a6c565b60006113b78686866118d5565b6002546001549192506000916113e59188916001600160a01b03918216911688670de0b6b3a7640000610a73565b9050670de0b6b3a76400006113fa8284612428565b61140491906122f1565b979650505050505050565b6000806000836001600160a01b0316630dfe16816040518163ffffffff1660e01b815260040160206040518083038186803b15801561144d57600080fd5b505afa158015611461573d6000803e3d6000fd5b505050506040513d601f19601f820116820180604052508101906114859190611bd5565b90506000846001600160a01b031663d21220a76040518163ffffffff1660e01b815260040160206040518083038186803b1580156114c257600080fd5b505afa1580156114d6573d6000803e3d6000fd5b505050506040513d601f19601f820116820180604052508101906114fa9190611bd5565b6002549091506001600160a01b0383811691161461151e575091506001905061154a565b6002546001600160a01b038281169116146115405792506001915061154a9050565b6000809350935050505b915091565b6000806000839050806001600160a01b0316630dfe16816040518163ffffffff1660e01b815260040160206040518083038186803b15801561159057600080fd5b505afa1580156115a4573d6000803e3d6000fd5b505050506040513d601f19601f820116820180604052508101906115c89190611bd5565b816001600160a01b031663d21220a76040518163ffffffff1660e01b815260040160206040518083038186803b15801561160157600080fd5b505afa158015611615573d6000803e3d6000fd5b505050506040513d601f19601f820116820180604052508101906116399190611bd5565b9250925050915091565b600080846001600160a01b031663d06ca61f84866040518363ffffffff1660e01b8152600401611674929190612229565b60006040518083038186803b15801561168c57600080fd5b505afa1580156116a0573d6000803e3d6000fd5b505050506040513d6000823e601f3d908101601f191682016040526116c89190810190611efe565b905060006103e8826001815181106116f057634e487b7160e01b600052603260045260246000fd5b60200260200101516103e56117059190612428565b61170f91906122f1565b90506000866001600160a01b0316631f00ca7483886040518363ffffffff1660e01b8152600401611741929190612229565b60006040518083038186803b15801561175957600080fd5b505afa15801561176d573d6000803e3d6000fd5b505050506040513d6000823e601f3d908101601f191682016040526117959190810190611efe565b905060006103e8826000815181106117bd57634e487b7160e01b600052603260045260246000fd5b60200260200101516103e56117d29190612428565b6117dc91906122f1565b905060006001826117f586670de0b6b3a7640000612428565b6117ff91906122f1565b61102c9190612447565b600080856001600160a01b031663d06ca61f8487876040518463ffffffff1660e01b815260040161183c939291906121dd565b60006040518083038186803b15801561185457600080fd5b505afa158015611868573d6000803e3d6000fd5b505050506040513d6000823e601f3d908101601f191682016040526118909190810190611efe565b90506000816118a0600187612447565b815181106118be57634e487b7160e01b600052603260045260246000fd5b602002602001015190508092505050949350505050565b6000610a698385600260009054906101000a90046001600160a01b031685886001600160a01b031663313ce5676040518163ffffffff1660e01b815260040160206040518083038186803b15801561192c57600080fd5b505afa158015611940573d6000803e3d6000fd5b505050506040513d601f19601f820116820180604052508101906119649190612079565b6101b990600a612357565b606060008567ffffffffffffffff81111561199a57634e487b7160e01b600052604160045260246000fd5b6040519080825280602002602001820160405280156119c3578160200160208202803683370190505b50905060005b86811015610d4557611a118888838181106119f457634e487b7160e01b600052603260045260246000fd5b9050602002016020810190611a099190611bb9565b878787611809565b828281518110611a3157634e487b7160e01b600052603260045260246000fd5b602090810291909101015280611a46816124b1565b9150506119c9565b600080611a5c8585856109e8565b90506001600160a01b038116611a76576000915050610a6c565b600080826001600160a01b0316630902f1ac6040518163ffffffff1660e01b815260040160606040518083038186803b158015611ab257600080fd5b505afa158015611ac6573d6000803e3d6000fd5b505050506040513d601f19601f82011682018060405250810190611aea919061201e565b5091509150816001600160701b031660001480611b0e57506001600160701b038116155b15611b1f5760009350505050610a6c565b5060019695505050505050565b6000610a6c8284612428565b6040518060800160405280606081526020016060815260200160008152602001600081525090565b60008083601f840112611b71578182fd5b50813567ffffffffffffffff811115611b88578182fd5b60208301915083602080830285010111156107c257600080fd5b80516001600160701b03811681146109c557600080fd5b600060208284031215611bca578081fd5b8135610a6c816124f8565b600060208284031215611be6578081fd5b8151610a6c816124f8565b60008060408385031215611c03578081fd5b8235611c0e816124f8565b91506020830135611c1e816124f8565b809150509250929050565b600080600060608486031215611c3d578081fd5b8335611c48816124f8565b92506020840135611c58816124f8565b91506040840135611c68816124f8565b809150509250925092565b60008060008060808587031215611c88578081fd5b8435611c93816124f8565b93506020850135611ca3816124f8565b92506040850135611cb3816124f8565b91506060850135611cc3816124f8565b939692955090935050565b600080600080600060a08688031215611ce5578081fd5b8535611cf0816124f8565b94506020860135611d00816124f8565b93506040860135611d10816124f8565b92506060860135611d20816124f8565b949793965091946080013592915050565b60008060008060808587031215611d46578384fd5b8435611d51816124f8565b93506020850135611d61816124f8565b9250604085013591506060850135611cc3816124f8565b60008060008060608587031215611d8d578182fd5b8435611d98816124f8565b9350602085013567ffffffffffffffff811115611db3578283fd5b611dbf87828801611b60565b9598909750949560400135949350505050565b600080600060608486031215611de6578081fd5b8335611df1816124f8565b925060208481013567ffffffffffffffff811115611e0d578283fd5b8501601f81018713611e1d578283fd5b8035611e30611e2b826122cd565b6122a3565b81815283810190838501858402850186018b1015611e4c578687fd5b8694505b83851015611e77578035611e63816124f8565b835260019490940193918501918501611e50565b5096999698505050506040949094013593505050565b600080600080600060608688031215611ea4578283fd5b853567ffffffffffffffff80821115611ebb578485fd5b611ec789838a01611b60565b90975095506020880135915080821115611edf578485fd5b50611eec88828901611b60565b96999598509660400135949350505050565b60006020808385031215611f10578182fd5b825167ffffffffffffffff811115611f26578283fd5b8301601f81018513611f36578283fd5b8051611f44611e2b826122cd565b8181528381019083850185840285018601891015611f60578687fd5b8694505b83851015611f82578051835260019490940193918501918501611f64565b50979650505050505050565b600060208284031215611f9f578081fd5b815167ffffffffffffffff80821115611fb6578283fd5b818401915084601f830112611fc9578283fd5b815181811115611fdb57611fdb6124e2565b611fee601f8201601f19166020016122a3565b9150808252856020828501011115612004578384fd5b612015816020840160208601612481565b50949350505050565b600080600060608486031215612032578081fd5b61203b84611ba2565b925061204960208501611ba2565b9150604084015163ffffffff81168114611c68578182fd5b600060208284031215612072578081fd5b5051919050565b60006020828403121561208a578081fd5b815160ff81168114610a6c578182fd5b600081518084526120b2816020860160208601612481565b601f01601f19169290920160200192915050565b600082516120d8818460208701612481565b9190910192915050565b6001600160a01b0391909116815260200190565b6001600160a01b0392831681529116602082015260400190565b6001600160a01b039290921682521515602082015260400190565b6020808252825182820181905260009190848201906040850190845b8181101561216357835183529284019291840191600101612147565b50909695505050505050565b901515815260200190565b60006020825282516080602084015261219660a084018261209a565b90506020840151601f198483030160408501526121b3828261209a565b91505060408401516060840152606084015160808401528091505092915050565b90815260200190565b83815260406020808301829052908201839052600090849060608401835b86811015611f8257833561220e816124f8565b6001600160a01b0316825292820192908201906001016121fb565b60006040820184835260206040818501528185518084526060860191508287019350845b818110156122725784516001600160a01b03168352938301939183019160010161224d565b5090979650505050505050565b918252602082015260400190565b9283526020830191909152604082015260600190565b60405181810167ffffffffffffffff811182821017156122c5576122c56124e2565b604052919050565b600067ffffffffffffffff8211156122e7576122e76124e2565b5060209081020190565b60008261230c57634e487b7160e01b81526012600452602481fd5b500490565b80825b6001808611612323575061234e565b818704821115612335576123356124cc565b8086161561234257918102915b9490941c938002612314565b94509492505050565b6000610a6c60001960ff85168460008261237357506001610a6c565b8161238057506000610a6c565b816001811461239657600281146123a0576123cd565b6001915050610a6c565b60ff8411156123b1576123b16124cc565b6001841b9150848211156123c7576123c76124cc565b50610a6c565b5060208310610133831016604e8410600b8410161715612400575081810a838111156123fb576123fb6124cc565b610a6c565b61240d8484846001612311565b80860482111561241f5761241f6124cc565b02949350505050565b6000816000190483118215151615612442576124426124cc565b500290565b600082821015612459576124596124cc565b500390565b600060ff821660ff841680821015612478576124786124cc565b90039392505050565b60005b8381101561249c578181015183820152602001612484565b838111156124ab576000848401525b50505050565b60006000198214156124c5576124c56124cc565b5060010190565b634e487b7160e01b600052601160045260246000fd5b634e487b7160e01b600052604160045260246000fd5b6001600160a01b038116811461250d57600080fd5b5056fea264697066735822122074319ddb0fed8834db4e7b4cacee772bf886473ec4a7f63bc316e64c863c526864736f6c63430008000033",
  "immutableReferences": {},
  "source": "// SPDX-License-Identifier: MIT\r\n\r\npragma solidity >=0.8.0;\r\n\r\nimport \"@openzeppelin/contracts/utils/math/SafeMath.sol\";\r\nimport \"@uniswap/v2-core/contracts/interfaces/IUniswapV2Factory.sol\";\r\nimport \"@uniswap/v2-core/contracts/interfaces/IUniswapV2Pair.sol\";\r\nimport \"@uniswap/v2-periphery/contracts/interfaces/IUniswapV2Router02.sol\";\r\nimport \"@openzeppelin/contracts/token/ERC20/IERC20.sol\";\r\n\r\ncontract IYieldTrinityDicoverer {\r\n    IUniswapV2Pair IPairV2;\r\n    // IYieldTrinitySharedWallet SharedWallet;\r\n\r\n    address public usdt;\r\n    address public weth;\r\n\r\n    using SafeMath for uint256;\r\n\r\n    struct TokenInfo {\r\n        string name;\r\n        string symbol;\r\n        uint256 decimals;\r\n        uint256 totalSupply;\r\n    }\r\n\r\n    constructor(address _usdt, address _weth) {\r\n        usdt = _usdt;\r\n        weth = _weth;\r\n    }\r\n\r\n    function quotes(\r\n        address _router,\r\n        address _token1,\r\n        address _token2,\r\n        address _factory,\r\n        uint256 _amount\r\n    ) public view returns (uint256 currentPrice) {\r\n        if (!(hasLiquidity(_token1, _token2, _factory))) return 0;\r\n        (uint256 reserve0, uint256 reserve1) = tokensLiquidity(\r\n            _token1,\r\n            _token2,\r\n            _factory\r\n        );\r\n        return IUniswapV2Router02(_router).quote(_amount, reserve0, reserve1);\r\n    }\r\n\r\n    function quoteByPair(\r\n        address _router,\r\n        address _pair,\r\n        uint256 _amount,\r\n        address _factory\r\n    ) public view returns (uint256 currentQuote) {\r\n        (address _token1, address _token2) = getTokensFromPair(_pair);\r\n        if (!(hasLiquidity(_token1, _token2, _factory))) return 0;\r\n        address _fm = _token1;\r\n        address _to = _token2;\r\n        if (_token1 == weth) {\r\n            _fm = _token2;\r\n            _to = _token1;\r\n        }\r\n        return quotes(_router, _fm, _to, _factory, _amount);\r\n    }\r\n\r\n    function getPathForToken(address tokenIn, address tokenOut)\r\n        internal\r\n        pure\r\n        returns (address[] memory)\r\n    {\r\n        address[] memory path = new address[](2);\r\n        path[0] = tokenIn;\r\n        path[1] = tokenOut;\r\n        return path;\r\n    }\r\n\r\n    function getLastPrice(\r\n        address _token1,\r\n        address _token2,\r\n        address _route,\r\n        address _factory\r\n    ) public view returns (uint256 lastRate) {\r\n        address[] memory path = new address[](2);\r\n        path[0] = _token1;\r\n        path[1] = _token2;\r\n        if (!hasLiquidity(_token1, _token2, _factory)) return 0;\r\n        uint256[] memory amounts = IUniswapV2Router02(_route).getAmountsOut(\r\n            10**IERC20(_token1).decimals(),\r\n            path\r\n        );\r\n        return amounts[1];\r\n    }\r\n\r\n    function priceInWETH(\r\n        address _token,\r\n        address _router,\r\n        address _factory\r\n    ) public view returns (uint256 price) {\r\n        return\r\n            quotes(\r\n                _router,\r\n                _token,\r\n                weth,\r\n                _factory,\r\n                10**IERC20(_token).decimals()\r\n            );\r\n    }\r\n\r\n    function priceInUSDT(\r\n        address _token,\r\n        address _router,\r\n        address _factory\r\n    ) public view returns (uint256 price) {\r\n        address pair = getPairAddress(_token, usdt, _factory);\r\n        if (pair == address(0)) return 0;\r\n        uint256 tokenPriceInWETH = priceInWETH(_token, _router, _factory);\r\n        uint256 wethPriceInUSDT = quotes(\r\n            _router,\r\n            weth,\r\n            usdt,\r\n            _factory,\r\n            uint256(10**18)\r\n        );\r\n        return (tokenPriceInWETH * wethPriceInUSDT) / 1e18;\r\n    }\r\n\r\n    function getLastPair(address _factory) public view returns (address pair) {\r\n        uint256 numPairs = IUniswapV2Factory(_factory).allPairsLength();\r\n        address lastPair = IUniswapV2Factory(_factory).allPairs(numPairs - 1);\r\n        return lastPair;\r\n    }\r\n\r\n    function predictFuturePrices(\r\n        address[] calldata routes,\r\n        address[] calldata path,\r\n        uint256 amountIn\r\n    ) external view returns (uint256[] memory prices) {\r\n        uint256[] memory _outputs = new uint256[](routes.length);\r\n        for (uint256 r = 0; r < routes.length; r++) {\r\n            _outputs[r] = _predictPrice(routes[r], path, amountIn);\r\n        }\r\n        return _outputs;\r\n    }\r\n\r\n    function _predictPrice(\r\n        address _route,\r\n        address[] memory path,\r\n        uint256 _amount\r\n    ) public view returns (uint256 price) {\r\n        uint256[] memory amountsOut = IUniswapV2Router02(_route).getAmountsOut(\r\n            _amount,\r\n            path\r\n        );\r\n        uint256 efAmtOut = (amountsOut[1] * 997) / 1000;\r\n        uint256[] memory amountsIn = IUniswapV2Router02(_route).getAmountsIn(\r\n            efAmtOut,\r\n            path\r\n        );\r\n        uint256 efAmtIn = (amountsIn[0] * 997) / 1000;\r\n        // Calculate the price increase\r\n        uint256 priceIncrease = (efAmtOut * 1e18) / efAmtIn - 1;\r\n        return priceIncrease;\r\n    }\r\n\r\n    function hasLiquidity(\r\n        address _token1,\r\n        address _token2,\r\n        address _factory\r\n    ) public view returns (bool hasliquidity) {\r\n        address pair = getPairAddress(_token1, _token2, _factory);\r\n        if (pair == address(0)) return false;\r\n        (uint112 reserve1, uint112 reserve2, ) = IUniswapV2Pair(pair)\r\n            .getReserves();\r\n        if (reserve1 == 0 || reserve2 == 0) return false;\r\n        return true;\r\n    }\r\n\r\n    function tokensLiquidity(\r\n        address _token1,\r\n        address _token2,\r\n        address _factory\r\n    ) public view returns (uint256 base, uint256 token) {\r\n        if (!hasLiquidity(_token1, _token2, _factory)) return (0, 0);\r\n        address pair = getPairAddress(_token1, _token2, _factory);\r\n        (uint256 reserve1, uint256 reserve2, ) = IUniswapV2Pair(pair)\r\n            .getReserves();\r\n        uint256 Base = reserve1;\r\n        uint256 Token = reserve2;\r\n        if (\r\n            keccak256(\r\n                abi.encodePacked(IERC20(IUniswapV2Pair(pair).token0()).symbol())\r\n            ) != keccak256(abi.encodePacked(IERC20(_token1).symbol()))\r\n        ) {\r\n            Base = reserve2;\r\n            Token = reserve1;\r\n        }\r\n        return (Base, Token);\r\n    }\r\n\r\n    function getTokenFromPair(address _pair)\r\n        public\r\n        view\r\n        returns (address tokenAddress, bool isValid)\r\n    {\r\n        address token0 = IUniswapV2Pair(_pair).token0();\r\n        address token1 = IUniswapV2Pair(_pair).token1();\r\n        if (token0 != weth) return (token0, true);\r\n        else if (token1 != weth) return (token1, true);\r\n        else return (address(0), false);\r\n    }\r\n\r\n    function getTokenInfoFromPair(address pair)\r\n        public\r\n        view\r\n        returns (TokenInfo memory tokenInfo)\r\n    {\r\n        address token0 = IUniswapV2Pair(pair).token0();\r\n        address token1 = IUniswapV2Pair(pair).token1();\r\n        if (token0 != weth) return getTokenInfo(token1);\r\n        else if (token1 != weth) return getTokenInfo(token1);\r\n        else return getTokenInfo(address(0));\r\n    }\r\n\r\n    function getTokenInfo(address _token)\r\n        public\r\n        view\r\n        returns (TokenInfo memory)\r\n    {\r\n        IERC20 token = IERC20(_token);\r\n        return\r\n            TokenInfo({\r\n                name: token.name(),\r\n                symbol: token.symbol(),\r\n                decimals: token.decimals(),\r\n                totalSupply: token.totalSupply()\r\n            });\r\n    }\r\n\r\n    function getPairAddress(\r\n        address _token1,\r\n        address _token2,\r\n        address _factory\r\n    ) public view returns (address) {\r\n        return IUniswapV2Factory(_factory).getPair(_token1, _token2);\r\n    }\r\n\r\n    function getTokenPairReserves(address _pair, address _factory)\r\n        public\r\n        view\r\n        returns (uint256 token0Reserve, uint256 reserve1Reserve)\r\n    {\r\n        (address token0, address token1) = getTokensFromPair(_pair);\r\n        if (!hasLiquidity(token0, token1, _factory)) return (0, 0);\r\n        (uint256 reserve0, uint256 reserve1, ) = IUniswapV2Pair(_pair)\r\n            .getReserves();\r\n        IERC20 tokenOne = IERC20(token0);\r\n        IERC20 tokenTwo = IERC20(token1);\r\n\r\n        if (tokenOne.decimals() < tokenTwo.decimals()) {\r\n            reserve0 = reserve0.mul(\r\n                10**(tokenTwo.decimals() - tokenOne.decimals())\r\n            );\r\n        } else if (tokenTwo.decimals() < tokenOne.decimals()) {\r\n            reserve1 = reserve1.mul(\r\n                10**(tokenOne.decimals() - tokenTwo.decimals())\r\n            );\r\n        }\r\n        return (reserve0, reserve1);\r\n    }\r\n\r\n    function getTokensFromPair(address _pair)\r\n        public\r\n        view\r\n        returns (address token0, address token1)\r\n    {\r\n        IUniswapV2Pair pair = IUniswapV2Pair(_pair);\r\n        return (pair.token0(), pair.token1());\r\n    }\r\n\r\n    function getRouteOutputs(\r\n        address[] calldata routes,\r\n        address[] calldata path,\r\n        uint256 amountIn\r\n    ) public view returns (uint256[] memory outputs) {\r\n        uint256[] memory _outputs = new uint256[](routes.length);\r\n        for (uint256 r = 0; r < routes.length; r++) {\r\n            _outputs[r] = _getRouteOutput(routes[r], path, amountIn);\r\n        }\r\n        return (_outputs);\r\n    }\r\n\r\n    function _getRouteOutput(\r\n        address route,\r\n        address[] calldata path,\r\n        uint256 amountIn\r\n    ) public view returns (uint256) {\r\n        uint256[] memory dex1 = IUniswapV2Router02(route).getAmountsOut(\r\n            amountIn,\r\n            path\r\n        );\r\n        uint256 dexOneOut = dex1[path.length - 1];\r\n        return (dexOneOut);\r\n    }\r\n}\r\n",
  "sourcePath": "C:\\WorkSpace\\Programmes\\Solidity\\yield-trinty\\contracts\\price-dicoverer.sol",
  "compiler": {
    "name": "solc",
    "version": "0.8.0+commit.c7dfd78e.Emscripten.clang"
  },
  "schemaVersion": "3.4.11",
  "updatedAt": "2023-04-19T14:21:22.946Z",
  "devdoc": {
    "kind": "dev",
    "methods": {},
    "version": 1
  },
  "userdoc": {
    "kind": "user",
    "methods": {},
    "version": 1
  }
}