{
  "contractName": "PricePredictor",
  "abi": [
    {
      "inputs": [
        {
          "internalType": "address",
          "name": "routerAddress",
          "type": "address"
        },
        {
          "internalType": "address",
          "name": "_uniswapFactory",
          "type": "address"
        }
      ],
      "stateMutability": "nonpayable",
      "type": "constructor"
    },
    {
      "inputs": [],
      "name": "uniswapFactory",
      "outputs": [
        {
          "internalType": "contract IUniswapV2Factory",
          "name": "",
          "type": "address"
        }
      ],
      "stateMutability": "view",
      "type": "function"
    },
    {
      "inputs": [
        {
          "internalType": "address",
          "name": "tokenFrom",
          "type": "address"
        },
        {
          "internalType": "address",
          "name": "tokenTo",
          "type": "address"
        },
        {
          "internalType": "uint256",
          "name": "amount",
          "type": "uint256"
        }
      ],
      "name": "predictFuturePrice",
      "outputs": [
        {
          "internalType": "uint256",
          "name": "",
          "type": "uint256"
        }
      ],
      "stateMutability": "view",
      "type": "function"
    },
    {
      "inputs": [
        {
          "internalType": "address",
          "name": "tokenIn",
          "type": "address"
        },
        {
          "internalType": "address",
          "name": "tokenOut",
          "type": "address"
        },
        {
          "internalType": "uint256",
          "name": "amountIn",
          "type": "uint256"
        }
      ],
      "name": "getPriceImpact",
      "outputs": [
        {
          "internalType": "uint256",
          "name": "",
          "type": "uint256"
        }
      ],
      "stateMutability": "view",
      "type": "function"
    }
  ],
  "bytecode": "0x608060405234801561001057600080fd5b50604051610afe380380610afe83398101604081905261002f9161007c565b600080546001600160a01b039384166001600160a01b031991821617909155600180549290931691161790556100ae565b80516001600160a01b038116811461007757600080fd5b919050565b6000806040838503121561008e578182fd5b61009783610060565b91506100a560208401610060565b90509250929050565b610a41806100bd6000396000f3fe608060405234801561001057600080fd5b50600436106100415760003560e01c806330e85350146100465780638bdb2afa1461006f578063cf42feac14610084575b600080fd5b610059610054366004610784565b610097565b60405161006691906108fa565b60405180910390f35b61007761030a565b60405161006691906108e6565b610059610092366004610784565b610319565b6040805160028082526060820183526000928392919060208301908036833701905050905084816000815181106100de57634e487b7160e01b600052603260045260246000fd5b60200260200101906001600160a01b031690816001600160a01b031681525050838160018151811061012057634e487b7160e01b600052603260045260246000fd5b6001600160a01b0392831660209182029290920101526000805460405163d06ca61f60e01b81529192169063d06ca61f906101619087908690600401610903565b60006040518083038186803b15801561017957600080fd5b505afa15801561018d573d6000803e3d6000fd5b505050506040513d6000823e601f3d908101601f191682016040526101b591908101906107c4565b905060006103e8826001815181106101dd57634e487b7160e01b600052603260045260246000fd5b60200260200101516103e56101f29190610991565b6101fc9190610971565b600080546040516307c0329d60e21b815292935090916001600160a01b0390911690631f00ca74906102349085908890600401610903565b60006040518083038186803b15801561024c57600080fd5b505afa158015610260573d6000803e3d6000fd5b505050506040513d6000823e601f3d908101601f1916820160405261028891908101906107c4565b905060006103e8826000815181106102b057634e487b7160e01b600052603260045260246000fd5b60200260200101516103e56102c59190610991565b6102cf9190610971565b905060006001826102e886670de0b6b3a7640000610991565b6102f29190610971565b6102fc91906109b0565b9a9950505050505050505050565b6001546001600160a01b031681565b6000805481906001600160a01b031663d06ca61f8461033888886104e0565b6040518363ffffffff1660e01b8152600401610355929190610903565b60006040518083038186803b15801561036d57600080fd5b505afa158015610381573d6000803e3d6000fd5b505050506040513d6000823e601f3d908101601f191682016040526103a991908101906107c4565b9050600081600183516103bc91906109b0565b815181106103da57634e487b7160e01b600052603260045260246000fd5b6020026020010151905060006103f08688610589565b61040283670de0b6b3a7640000610991565b61040c9190610971565b9050600061041a8888610589565b90506000610428888a610589565b90506000610438886103e5610991565b905060006104468383610991565b610452906103e8610991565b9050600082610463866103e5610991565b61046d9190610959565b9050600061047b8284610971565b905060006104898c88610959565b61049b83670de0b6b3a7640000610991565b6104a59190610971565b9050876104b282826109b0565b6104c490670de0b6b3a7640000610991565b6104ce9190610971565b9e9d5050505050505050505050505050565b60408051600280825260608083018452926000929190602083019080368337019050509050838160008151811061052757634e487b7160e01b600052603260045260246000fd5b60200260200101906001600160a01b031690816001600160a01b031681525050828160018151811061056957634e487b7160e01b600052603260045260246000fd5b6001600160a01b0390921660209283029190910190910152905092915050565b600080600061059885856106c2565b6001600160a01b0316630902f1ac6040518163ffffffff1660e01b815260040160606040518083038186803b1580156105d057600080fd5b505afa1580156105e4573d6000803e3d6000fd5b505050506040513d601f19601f82011682018060405250810190610608919061087e565b506001600160701b031691506001600160701b0316915061062985856106c2565b6001600160a01b0316630dfe16816040518163ffffffff1660e01b815260040160206040518083038186803b15801561066157600080fd5b505afa158015610675573d6000803e3d6000fd5b505050506040513d601f19601f820116820180604052508101906106999190610768565b6001600160a01b0316856001600160a01b0316146106b757806106b9565b815b95945050505050565b60015460405163e6a4390560e01b81526000916001600160a01b03169063e6a43905906106f590869086906004016108cc565b60206040518083038186803b15801561070d57600080fd5b505afa158015610721573d6000803e3d6000fd5b505050506040513d601f19601f820116820180604052508101906107459190610768565b9392505050565b80516001600160701b038116811461076357600080fd5b919050565b600060208284031215610779578081fd5b8151610745816109f3565b600080600060608486031215610798578182fd5b83356107a3816109f3565b925060208401356107b3816109f3565b929592945050506040919091013590565b600060208083850312156107d6578182fd5b825167ffffffffffffffff808211156107ed578384fd5b818501915085601f830112610800578384fd5b815181811115610812576108126109dd565b83810260405185828201018181108582111715610831576108316109dd565b604052828152858101935084860182860187018a101561084f578788fd5b8795505b83861015610871578051855260019590950194938601938601610853565b5098975050505050505050565b600080600060608486031215610892578283fd5b61089b8461074c565b92506108a96020850161074c565b9150604084015163ffffffff811681146108c1578182fd5b809150509250925092565b6001600160a01b0392831681529116602082015260400190565b6001600160a01b0391909116815260200190565b90815260200190565b60006040820184835260206040818501528185518084526060860191508287019350845b8181101561094c5784516001600160a01b031683529383019391830191600101610927565b5090979650505050505050565b6000821982111561096c5761096c6109c7565b500190565b60008261098c57634e487b7160e01b81526012600452602481fd5b500490565b60008160001904831182151516156109ab576109ab6109c7565b500290565b6000828210156109c2576109c26109c7565b500390565b634e487b7160e01b600052601160045260246000fd5b634e487b7160e01b600052604160045260246000fd5b6001600160a01b0381168114610a0857600080fd5b5056fea2646970667358221220154ba1b3aea3721192653d6219e4c31d0db2546aa213ce474c28f6f0fb68433464736f6c63430008000033",
  "immutableReferences": {},
  "source": "// SPDX-License-Identifier: MIT\r\n\r\npragma solidity ^0.8.0;\r\n\r\nimport \"@uniswap/v2-periphery/contracts/interfaces/IUniswapV2Router02.sol\";\r\nimport \"@uniswap/v2-core/contracts/interfaces/IUniswapV2Pair.sol\";\r\nimport \"@uniswap/v2-core/contracts/interfaces/IUniswapV2Factory.sol\";\r\nimport \"@openzeppelin/contracts/interfaces/IERC20.sol\";\r\n\r\ncontract PricePredictor {\r\n    IUniswapV2Router02 uniswapRouter;\r\n    IUniswapV2Factory public uniswapFactory;\r\n\r\n    constructor(address routerAddress, address _uniswapFactory) {\r\n        uniswapRouter = IUniswapV2Router02(routerAddress);\r\n        uniswapFactory = IUniswapV2Factory(_uniswapFactory);\r\n    }\r\n \r\n    function predictFuturePrice(\r\n        address tokenFrom,\r\n        address tokenTo,\r\n        uint256 amount\r\n    ) external view returns (uint256) {  \r\n        // Get the path array for the input token -> output token swap\r\n        address[] memory path = new address[](2);\r\n        path[0] = tokenFrom;\r\n        path[1] = tokenTo;\r\n        // Calculate the expected output amount for the input token -> output token swap\r\n        uint256[] memory amountsOut = uniswapRouter.getAmountsOut(amount, path);\r\n        uint256 effectiveAmountOut = (amountsOut[1] * 997) / 1000;\r\n        // Calculate the required input amount for the output token -> input token swap\r\n        uint256[] memory amountsIn = uniswapRouter.getAmountsIn( effectiveAmountOut,    path );\r\n        uint256 effectiveAmountIn = (amountsIn[0] * 997) / 1000;\r\n        // Calculate the price increase\r\n        uint256 priceIncrease = (effectiveAmountOut * 1e18) /   effectiveAmountIn -    1;\r\n        return priceIncrease;\r\n    }\r\n\r\n    function getPriceImpact(\r\n        address tokenIn,\r\n        address tokenOut,\r\n        uint256 amountIn\r\n    ) public view returns (uint256) {\r\n        uint256[] memory amounts = uniswapRouter.getAmountsOut(\r\n            amountIn,\r\n            getPathForToken(tokenIn, tokenOut)\r\n        );\r\n        uint256 amountOut = amounts[amounts.length - 1];\r\n        uint256 spotPriceBefore = (amountOut * 1e18) /\r\n            getReserve(tokenOut, tokenIn);\r\n\r\n        uint256 reserveIn = getReserve(tokenIn, tokenOut);\r\n        uint256 reserveOut = getReserve(tokenOut, tokenIn);\r\n        uint256 amountInWithFee = amountIn * 997; // 0.3% fee\r\n        uint256 numerator = amountInWithFee * reserveOut * 1000;\r\n        uint256 denominator = (reserveIn * 997) + amountInWithFee;\r\n        uint256 amountOutWithSlippage = numerator / denominator;\r\n        uint256 spotPriceAfter = (amountOutWithSlippage * 1e18) /\r\n            (reserveIn + amountIn);\r\n\r\n        return ((spotPriceBefore - spotPriceAfter) * 1e18) / spotPriceBefore;\r\n    }\r\n\r\n    function getPathForToken(address tokenIn, address tokenOut)\r\n        internal\r\n        pure\r\n        returns (address[] memory)\r\n    {\r\n        address[] memory path = new address[](2);\r\n        path[0] = tokenIn;\r\n        path[1] = tokenOut;\r\n        return path;\r\n    }\r\n\r\n    function getReserve(address tokenA, address tokenB)\r\n        internal\r\n        view\r\n        returns (uint256)\r\n    {\r\n        (uint256 reserveA, uint256 reserveB, ) = IUniswapV2Pair(\r\n            getPair(tokenA, tokenB)\r\n        ).getReserves();\r\n        return\r\n            tokenA == IUniswapV2Pair(getPair(tokenA, tokenB)).token0()\r\n                ? reserveA\r\n                : reserveB;\r\n    }\r\n\r\n    function getPair(address tokenA, address tokenB)\r\n        internal\r\n        view\r\n        returns (address)\r\n    {\r\n        return uniswapFactory.getPair(tokenA, tokenB);\r\n    }\r\n}\r\n",
  "sourcePath": "C:\\WorkSpace\\Programmes\\Solidity\\yield-trinty\\contracts\\price-predictor.sol",
  "compiler": {
    "name": "solc",
    "version": "0.8.0+commit.c7dfd78e.Emscripten.clang"
  },
  "schemaVersion": "3.4.11",
  "updatedAt": "2023-04-19T14:21:22.970Z",
  "devdoc": {
    "kind": "dev",
    "methods": {},
    "version": 1
  },
  "userdoc": {
    "kind": "user",
    "methods": {},
    "version": 1
  }
}