{
  "contractName": "YieldTrinitySharedWallet",
  "abi": [
    {
      "inputs": [],
      "stateMutability": "nonpayable",
      "type": "constructor"
    },
    {
      "anonymous": false,
      "inputs": [
        {
          "indexed": false,
          "internalType": "address",
          "name": "account",
          "type": "address"
        },
        {
          "indexed": false,
          "internalType": "uint256",
          "name": "amount",
          "type": "uint256"
        }
      ],
      "name": "Borrow",
      "type": "event"
    },
    {
      "anonymous": false,
      "inputs": [
        {
          "indexed": true,
          "internalType": "address",
          "name": "user",
          "type": "address"
        },
        {
          "indexed": false,
          "internalType": "uint256",
          "name": "amount",
          "type": "uint256"
        }
      ],
      "name": "Deposit",
      "type": "event"
    },
    {
      "anonymous": false,
      "inputs": [
        {
          "indexed": false,
          "internalType": "address",
          "name": "account",
          "type": "address"
        },
        {
          "indexed": false,
          "internalType": "uint256",
          "name": "amount",
          "type": "uint256"
        }
      ],
      "name": "Repay",
      "type": "event"
    },
    {
      "anonymous": false,
      "inputs": [
        {
          "indexed": true,
          "internalType": "address",
          "name": "user",
          "type": "address"
        },
        {
          "indexed": false,
          "internalType": "uint256",
          "name": "amount",
          "type": "uint256"
        }
      ],
      "name": "Withdrawal",
      "type": "event"
    },
    {
      "inputs": [
        {
          "internalType": "address",
          "name": "",
          "type": "address"
        }
      ],
      "name": "bannedUsers",
      "outputs": [
        {
          "internalType": "bool",
          "name": "",
          "type": "bool"
        }
      ],
      "stateMutability": "view",
      "type": "function"
    },
    {
      "inputs": [
        {
          "internalType": "address",
          "name": "",
          "type": "address"
        }
      ],
      "name": "borrowedAmounts",
      "outputs": [
        {
          "internalType": "uint256",
          "name": "",
          "type": "uint256"
        }
      ],
      "stateMutability": "view",
      "type": "function"
    },
    {
      "inputs": [
        {
          "internalType": "address",
          "name": "",
          "type": "address"
        }
      ],
      "name": "conspectus",
      "outputs": [
        {
          "internalType": "uint256",
          "name": "",
          "type": "uint256"
        }
      ],
      "stateMutability": "view",
      "type": "function"
    },
    {
      "inputs": [
        {
          "internalType": "address",
          "name": "",
          "type": "address"
        }
      ],
      "name": "contribute",
      "outputs": [
        {
          "internalType": "uint256",
          "name": "",
          "type": "uint256"
        }
      ],
      "stateMutability": "view",
      "type": "function"
    },
    {
      "inputs": [
        {
          "internalType": "address",
          "name": "",
          "type": "address"
        }
      ],
      "name": "dilutedEarning",
      "outputs": [
        {
          "internalType": "uint256",
          "name": "",
          "type": "uint256"
        }
      ],
      "stateMutability": "view",
      "type": "function"
    },
    {
      "inputs": [
        {
          "internalType": "uint256",
          "name": "",
          "type": "uint256"
        }
      ],
      "name": "epochHistory",
      "outputs": [
        {
          "internalType": "uint256",
          "name": "",
          "type": "uint256"
        }
      ],
      "stateMutability": "view",
      "type": "function"
    },
    {
      "inputs": [
        {
          "internalType": "address",
          "name": "",
          "type": "address"
        }
      ],
      "name": "lockMyFunds",
      "outputs": [
        {
          "internalType": "uint256",
          "name": "",
          "type": "uint256"
        }
      ],
      "stateMutability": "view",
      "type": "function"
    },
    {
      "inputs": [],
      "name": "minLockPeriod",
      "outputs": [
        {
          "internalType": "uint256",
          "name": "",
          "type": "uint256"
        }
      ],
      "stateMutability": "view",
      "type": "function"
    },
    {
      "inputs": [],
      "name": "owner",
      "outputs": [
        {
          "internalType": "address payable",
          "name": "",
          "type": "address"
        }
      ],
      "stateMutability": "view",
      "type": "function"
    },
    {
      "inputs": [
        {
          "internalType": "address",
          "name": "",
          "type": "address"
        }
      ],
      "name": "ownershipPercentage",
      "outputs": [
        {
          "internalType": "uint256",
          "name": "",
          "type": "uint256"
        }
      ],
      "stateMutability": "view",
      "type": "function"
    },
    {
      "inputs": [
        {
          "internalType": "address",
          "name": "",
          "type": "address"
        }
      ],
      "name": "potentialEarn",
      "outputs": [
        {
          "internalType": "uint256",
          "name": "",
          "type": "uint256"
        }
      ],
      "stateMutability": "view",
      "type": "function"
    },
    {
      "inputs": [
        {
          "internalType": "address",
          "name": "",
          "type": "address"
        }
      ],
      "name": "repaidAmounts",
      "outputs": [
        {
          "internalType": "uint256",
          "name": "",
          "type": "uint256"
        }
      ],
      "stateMutability": "view",
      "type": "function"
    },
    {
      "inputs": [],
      "name": "totalFunds",
      "outputs": [
        {
          "internalType": "uint256",
          "name": "",
          "type": "uint256"
        }
      ],
      "stateMutability": "view",
      "type": "function"
    },
    {
      "inputs": [
        {
          "internalType": "uint256",
          "name": "",
          "type": "uint256"
        }
      ],
      "name": "users",
      "outputs": [
        {
          "internalType": "address",
          "name": "",
          "type": "address"
        }
      ],
      "stateMutability": "view",
      "type": "function"
    },
    {
      "inputs": [
        {
          "internalType": "uint256",
          "name": "",
          "type": "uint256"
        }
      ],
      "name": "usersBeforeBorrow",
      "outputs": [
        {
          "internalType": "address",
          "name": "",
          "type": "address"
        }
      ],
      "stateMutability": "view",
      "type": "function"
    },
    {
      "inputs": [
        {
          "internalType": "address",
          "name": "",
          "type": "address"
        }
      ],
      "name": "whitelistedUsers",
      "outputs": [
        {
          "internalType": "bool",
          "name": "",
          "type": "bool"
        }
      ],
      "stateMutability": "view",
      "type": "function"
    },
    {
      "inputs": [],
      "name": "withdrawalFee",
      "outputs": [
        {
          "internalType": "uint256",
          "name": "",
          "type": "uint256"
        }
      ],
      "stateMutability": "view",
      "type": "function"
    },
    {
      "stateMutability": "payable",
      "type": "receive"
    },
    {
      "inputs": [
        {
          "internalType": "uint256",
          "name": "_lockPeriod",
          "type": "uint256"
        }
      ],
      "name": "deposit",
      "outputs": [],
      "stateMutability": "payable",
      "type": "function"
    },
    {
      "inputs": [
        {
          "internalType": "uint256",
          "name": "amount",
          "type": "uint256"
        }
      ],
      "name": "withdraw",
      "outputs": [],
      "stateMutability": "nonpayable",
      "type": "function"
    },
    {
      "inputs": [
        {
          "internalType": "uint256",
          "name": "_period",
          "type": "uint256"
        }
      ],
      "name": "setMinLockPeriod",
      "outputs": [],
      "stateMutability": "nonpayable",
      "type": "function"
    },
    {
      "inputs": [
        {
          "internalType": "uint256",
          "name": "amount",
          "type": "uint256"
        }
      ],
      "name": "borrow",
      "outputs": [],
      "stateMutability": "nonpayable",
      "type": "function"
    },
    {
      "inputs": [],
      "name": "borrowall",
      "outputs": [],
      "stateMutability": "nonpayable",
      "type": "function"
    },
    {
      "inputs": [],
      "name": "repay",
      "outputs": [],
      "stateMutability": "payable",
      "type": "function"
    },
    {
      "inputs": [
        {
          "internalType": "address",
          "name": "user",
          "type": "address"
        }
      ],
      "name": "ban",
      "outputs": [],
      "stateMutability": "nonpayable",
      "type": "function"
    },
    {
      "inputs": [
        {
          "internalType": "address",
          "name": "user",
          "type": "address"
        }
      ],
      "name": "unban",
      "outputs": [],
      "stateMutability": "nonpayable",
      "type": "function"
    },
    {
      "inputs": [
        {
          "internalType": "address payable",
          "name": "newOwner",
          "type": "address"
        }
      ],
      "name": "transferOwnership",
      "outputs": [],
      "stateMutability": "nonpayable",
      "type": "function"
    },
    {
      "inputs": [
        {
          "internalType": "address",
          "name": "user",
          "type": "address"
        }
      ],
      "name": "bypassBan",
      "outputs": [],
      "stateMutability": "nonpayable",
      "type": "function"
    },
    {
      "inputs": [],
      "name": "rebalanceOwnershipPercentages",
      "outputs": [],
      "stateMutability": "nonpayable",
      "type": "function"
    },
    {
      "inputs": [
        {
          "internalType": "address",
          "name": "_tokenAddress",
          "type": "address"
        },
        {
          "internalType": "uint256",
          "name": "_amount",
          "type": "uint256"
        }
      ],
      "name": "rescueERC20Token",
      "outputs": [],
      "stateMutability": "nonpayable",
      "type": "function"
    },
    {
      "inputs": [
        {
          "internalType": "uint256",
          "name": "fee",
          "type": "uint256"
        }
      ],
      "name": "updateWTDFee",
      "outputs": [],
      "stateMutability": "nonpayable",
      "type": "function"
    },
    {
      "inputs": [
        {
          "internalType": "address",
          "name": "account",
          "type": "address"
        }
      ],
      "name": "toggleWhiteList",
      "outputs": [],
      "stateMutability": "nonpayable",
      "type": "function"
    }
  ],
  "bytecode": "0x60806040526003600f556201518060105534801561001c57600080fd5b50600080546001600160a01b03191633179055611ca48061003e6000396000f3fe6080604052600436106101dc5760003560e01c80638988d07811610102578063b9f1455711610095578063d8dab03311610064578063d8dab03314610508578063e27eae8b14610528578063f2fde38b1461053d578063f621cc481461055d576101ef565b8063b9f1455714610475578063bd85e4f7146104a8578063c5ebeaec146104c8578063d2cf3ce4146104e8576101ef565b806397c3ccd8116100d157806397c3ccd81461043557806398860ebb14610455578063ad33cbcb14610475578063b6b55f2514610495576101ef565b80638988d078146103c95780638bc7e8c4146103f65780638da5cb5b1461040b578063968ed60014610420576101ef565b80634f431a6f1161017a5780636d4ee700116101495780636d4ee700146103545780637320ca261461037457806373ae54b51461039457806373e888fd146103a9576101ef565b80634f431a6f146102df578063578cdabf146102ff578063673fc75a1461031f5780636b2f0e951461033f576101ef565b80632e1a7d4d116101b65780632e1a7d4d1461026a578063365b98b21461028a578063402d8883146102b7578063478230f7146102bf576101ef565b806304b12385146101f4578063168d31ea1461022a578063193c17d01461024a576101ef565b366101ef576101ed6201518061057d565b005b600080fd5b34801561020057600080fd5b5061021461020f3660046117e9565b61076a565b6040516102219190611bb1565b60405180910390f35b34801561023657600080fd5b5061021461024536600461177b565b61078b565b34801561025657600080fd5b506101ed61026536600461179e565b61079d565b34801561027657600080fd5b506101ed6102853660046117e9565b610988565b34801561029657600080fd5b506102aa6102a53660046117e9565b610ba4565b6040516102219190611819565b6101ed610bce565b3480156102cb57600080fd5b506102146102da36600461177b565b610f62565b3480156102eb57600080fd5b506101ed6102fa36600461177b565b610f74565b34801561030b57600080fd5b5061021461031a36600461177b565b610fc7565b34801561032b57600080fd5b506102aa61033a3660046117e9565b610fd9565b34801561034b57600080fd5b506101ed610fe9565b34801561036057600080fd5b5061021461036f36600461177b565b6111ab565b34801561038057600080fd5b506101ed61038f3660046117e9565b6111bd565b3480156103a057600080fd5b506102146111ec565b3480156103b557600080fd5b506102146103c436600461177b565b6111f2565b3480156103d557600080fd5b506103e96103e436600461177b565b611204565b6040516102219190611846565b34801561040257600080fd5b50610214611219565b34801561041757600080fd5b506102aa61121f565b34801561042c57600080fd5b5061021461122e565b34801561044157600080fd5b506101ed61045036600461177b565b611234565b34801561046157600080fd5b5061021461047036600461177b565b6112b0565b34801561048157600080fd5b506101ed61049036600461177b565b6112c2565b6101ed6104a33660046117e9565b61057d565b3480156104b457600080fd5b506102146104c336600461177b565b61130d565b3480156104d457600080fd5b506101ed6104e33660046117e9565b61131f565b3480156104f457600080fd5b506101ed6105033660046117e9565b6114a8565b34801561051457600080fd5b5061021461052336600461177b565b6114d7565b34801561053457600080fd5b506101ed6114e9565b34801561054957600080fd5b506101ed61055836600461177b565b611521565b34801561056957600080fd5b506103e961057836600461177b565b611593565b3360009081526006602052604090205460ff16156105b65760405162461bcd60e51b81526004016105ad90611a8f565b60405180910390fd5b600034116105d65760405162461bcd60e51b81526004016105ad9061187a565b60105481101561064457336000908152600d602052604090205442101561062457601054336000908152600d602052604081208054909190610619908490611bba565b9091555061063f9050565b61062e8142611bba565b336000908152600d60205260409020555b6106a0565b336000908152600d602052604090205442101561068557336000908152600d60205260408120805483929061067a908490611bba565b909155506106a09050565b61068f8142611bba565b336000908152600d60205260409020555b60006106ab336115a8565b9050806106bb576106bb33611623565b33600090815260046020526040812080543492906106da908490611bba565b9091555050336000908152600c6020526040812080543492906106fe908490611bba565b9250508190555034600160008282546107179190611bba565b909155506107259050611675565b336001600160a01b03167fe1fffcc4923d04b559f4d29a8bfc6cda04eb5b0d3c460751c2402c5c5cc9109c3460405161075e9190611bb1565b60405180910390a25050565b600e818154811061077a57600080fd5b600091825260209091200154905081565b600d6020526000908152604090205481565b6000546001600160a01b031633146107c75760405162461bcd60e51b81526004016105ad90611b62565b3360009081526007602052604090205460ff166107f65760405162461bcd60e51b81526004016105ad90611add565b6001600160a01b03821661081c5760405162461bcd60e51b81526004016105ad90611a5f565b6000811161083c5760405162461bcd60e51b81526004016105ad90611851565b6040516370a0823160e01b815282906000906001600160a01b038316906370a082319061086d903090600401611819565b60206040518083038186803b15801561088557600080fd5b505afa158015610899573d6000803e3d6000fd5b505050506040513d601f19601f820116820180604052508101906108bd9190611801565b9050828110156108df5760405162461bcd60e51b81526004016105ad906118f4565b60405163a9059cbb60e01b81526000906001600160a01b0384169063a9059cbb90610910903390889060040161182d565b602060405180830381600087803b15801561092a57600080fd5b505af115801561093e573d6000803e3d6000fd5b505050506040513d601f19601f8201168201806040525081019061096291906117c9565b9050806109815760405162461bcd60e51b81526004016105ad90611b32565b5050505050565b3360009081526006602052604090205460ff16156109b85760405162461bcd60e51b81526004016105ad90611a8f565b600081116109d85760405162461bcd60e51b81526004016105ad906119e6565b336000908152600c6020526040902054811115610a075760405162461bcd60e51b81526004016105ad906119b7565b600154811115610a295760405162461bcd60e51b81526004016105ad906118b1565b336000908152600d60205260409020544211610a575760405162461bcd60e51b81526004016105ad9061198c565b336000908152600a602052604090205415610a7d57336000908152600a60205260408120555b6000612710600f5483610a909190611bf2565b610a9a9190611bd2565b33600090815260046020526040902054909150821115610ac95733600090815260046020526040812055610aee565b3360009081526004602052604081208054849290610ae8908490611c11565b90915550505b336000908152600c602052604081208054849290610b0d908490611c11565b925050819055508160016000828254610b269190611c11565b90915550610b349050611675565b336108fc610b428385611c11565b6040518115909202916000818181858888f19350505050158015610b6a573d6000803e3d6000fd5b50336001600160a01b03167f7fcf532c15f0a6db0bd6d0e038bea71d30d808c7d98cb3bf7268a95bf5081b658360405161075e9190611bb1565b60028181548110610bb457600080fd5b6000918252602090912001546001600160a01b0316905081565b33600090815260086020526040812054349190610beb9083611c11565b90508060016000828254610bff9190611bba565b90915550600090505b600354811015610ee257600060038281548110610c3557634e487b7160e01b600052603260045260246000fd5b60009182526020808320909101546001600160a01b0316808352600a9091526040909120549091508315610eb75760006064610c718684611bf2565b610c7b9190611bd2565b905080600b600060038781548110610ca357634e487b7160e01b600052603260045260246000fd5b60009182526020808320909101546001600160a01b0316835282019290925260400181208054909190610cd7908490611bba565b925050819055506000600c600060038781548110610d0557634e487b7160e01b600052603260045260246000fd5b60009182526020808320909101546001600160a01b0316835282019290925260400181209190915560038054600b92919087908110610d5457634e487b7160e01b600052603260045260246000fd5b9060005260206000200160009054906101000a90046001600160a01b03166001600160a01b03166001600160a01b0316815260200190815260200160002054600c600060038781548110610db857634e487b7160e01b600052603260045260246000fd5b60009182526020808320909101546001600160a01b0316835282019290925260400181208054909190610dec908490611bba565b925050819055506004600060038681548110610e1857634e487b7160e01b600052603260045260246000fd5b9060005260206000200160009054906101000a90046001600160a01b03166001600160a01b03166001600160a01b0316815260200190815260200160002054600c600060038781548110610e7c57634e487b7160e01b600052603260045260246000fd5b60009182526020808320909101546001600160a01b0316835282019290925260400181208054909190610eb0908490611bba565b9091555050505b506001600160a01b03166000908152600a602052604081205580610eda81611c28565b915050610c08565b50600e805460018101909155427fbb7b4a454dc3493923482f07822329ed19e8244eff582cc204f8554c3620c3fd909101553360008181526009602052604090819020849055517f5c16de4f8b59bd9caf0f49a545f25819a895ed223294290b408242e72a59423191610f5691859061182d565b60405180910390a15050565b60086020526000908152604090205481565b6000546001600160a01b03163314610f9e5760405162461bcd60e51b81526004016105ad90611b62565b6001600160a01b03166000908152600760205260409020805460ff19811660ff90911615179055565b600c6020526000908152604090205481565b60038181548110610bb457600080fd5b3360009081526007602052604090205460ff166110185760405162461bcd60e51b81526004016105ad90611add565b47806110365760405162461bcd60e51b81526004016105ad9061192b565b33600090815260086020908152604080832084905560099091528120556002805461106391600391611716565b5060005b6002548110156111405760006002828154811061109457634e487b7160e01b600052603260045260246000fd5b9060005260206000200160009054906101000a90046001600160a01b031690508260046000600285815481106110da57634e487b7160e01b600052603260045260246000fd5b60009182526020808320909101546001600160a01b0316835282019290925260400190205461110a906064611bf2565b6111149190611bd2565b6001600160a01b039091166000908152600a60205260409020558061113881611c28565b915050611067565b50604051339082156108fc029083906000818181858888f1935050505015801561116e573d6000803e3d6000fd5b507fcbc04eca7e9da35cb1393a6135a199ca52e450d5e9251cbd99f7847d33a3675033826040516111a092919061182d565b60405180910390a150565b600b6020526000908152604090205481565b6000546001600160a01b031633146111e75760405162461bcd60e51b81526004016105ad90611b62565b601055565b60105481565b60046020526000908152604090205481565b60066020526000908152604090205460ff1681565b600f5481565b6000546001600160a01b031681565b60015481565b6000546001600160a01b0316331461125e5760405162461bcd60e51b81526004016105ad90611b62565b6000546001600160a01b038281169116141561128c5760405162461bcd60e51b81526004016105ad90611a1d565b6001600160a01b03166000908152600660205260409020805460ff19166001179055565b600a6020526000908152604090205481565b6000546001600160a01b031633146112ec5760405162461bcd60e51b81526004016105ad90611b62565b6001600160a01b03166000908152600660205260409020805460ff19169055565b60096020526000908152604090205481565b3360009081526006602052604090205460ff161561134f5760405162461bcd60e51b81526004016105ad90611a8f565b3360009081526007602052604090205460ff1661137e5760405162461bcd60e51b81526004016105ad90611add565b6000811161139e5760405162461bcd60e51b81526004016105ad9061192b565b3360009081526008602090815260408083208490556009909152812055600280546113cb91600391611716565b5060005b600254811015611140576000600282815481106113fc57634e487b7160e01b600052603260045260246000fd5b9060005260206000200160009054906101000a90046001600160a01b0316905082600460006002858154811061144257634e487b7160e01b600052603260045260246000fd5b60009182526020808320909101546001600160a01b03168352820192909252604001902054611472906064611bf2565b61147c9190611bd2565b6001600160a01b039091166000908152600a6020526040902055806114a081611c28565b9150506113cf565b6000546001600160a01b031633146114d25760405162461bcd60e51b81526004016105ad90611b62565b600f55565b60056020526000908152604090205481565b6000546001600160a01b031633146115135760405162461bcd60e51b81526004016105ad90611b62565b4760015561151f611675565b565b6000546001600160a01b0316331461154b5760405162461bcd60e51b81526004016105ad90611b62565b6001600160a01b0381166115715760405162461bcd60e51b81526004016105ad90611962565b600080546001600160a01b0319166001600160a01b0392909216919091179055565b60076020526000908152604090205460ff1681565b6000805b60025481101561161857826001600160a01b0316600282815481106115e157634e487b7160e01b600052603260045260246000fd5b6000918252602090912001546001600160a01b0316141561160657600191505061161e565b8061161081611c28565b9150506115ac565b50600090505b919050565b600280546001810182556000919091527f405787fa12a823e0f2b7631cc41b3ba8828b3321ca811111fa75cd3aa3bb5ace0180546001600160a01b0319166001600160a01b0392909216919091179055565b60005b600254811015611713576000600282815481106116a557634e487b7160e01b600052603260045260246000fd5b60009182526020808320909101546001546001600160a01b03909116808452600c9092526040909220549092506116dd906064611bf2565b6116e79190611bd2565b6001600160a01b039091166000908152600560205260409020558061170b81611c28565b915050611678565b50565b8280548282559060005260206000209081019282156117565760005260206000209182015b8281111561175657825482559160010191906001019061173b565b50611762929150611766565b5090565b5b808211156117625760008155600101611767565b60006020828403121561178c578081fd5b813561179781611c59565b9392505050565b600080604083850312156117b0578081fd5b82356117bb81611c59565b946020939093013593505050565b6000602082840312156117da578081fd5b81518015158114611797578182fd5b6000602082840312156117fa578081fd5b5035919050565b600060208284031215611812578081fd5b5051919050565b6001600160a01b0391909116815260200190565b6001600160a01b03929092168252602082015260400190565b901515815260200190565b6020808252600f908201526e24b73b30b634b21030b6b7bab73a1760891b604082015260600190565b6020808252601d908201527f596f75206d757374206465706f736974206d6f7265207468616e20302e000000604082015260600190565b60208082526023908201527f496e73756666696369656e742066756e647320696e2074686520636f6e74726160408201526231ba1760e91b606082015260800190565b6020808252601b908201527f496e73756666696369656e7420746f6b656e2062616c616e63652e0000000000604082015260600190565b6020808252601d908201527f416d6f756e74206d7573742062652067726561746572207468616e2030000000604082015260600190565b60208082526010908201526f24b73b30b634b21030b2323932b9b99760811b604082015260600190565b6020808252601190820152704c6f636b206e6f7420726561636865642160781b604082015260600190565b60208082526015908201527424b739bab33334b1b4b2b73a103130b630b731b29760591b604082015260600190565b6020808252601e908201527f596f75206d757374207769746864726177206d6f7265207468616e20302e0000604082015260600190565b60208082526022908201527f596f752063616e6e6f742062616e2074686520636f6e7472616374206f776e65604082015261391760f11b606082015260800190565b60208082526016908201527524b73b30b634b2103a37b5b2b71030b2323932b9b99760511b604082015260600190565b6020808252602e908201527f596f752068617665206265656e2062616e6e65642066726f6d207573696e672060408201526d3a3434b99031b7b73a3930b1ba1760911b606082015260800190565b60208082526035908201527f596f7520617265206e6f742077686974656c697374656420746f20626f72726f6040820152743b90333937b6903a3434b99031b7b73a3930b1ba1760591b606082015260800190565b6020808252601690820152752a37b5b2b7103a3930b739b332b9103330b4b632b21760511b604082015260600190565b6020808252602f908201527f4f6e6c792074686520636f6e7472616374206f776e65722063616e2063616c6c60408201526e103a3434b990333ab731ba34b7b71760891b606082015260800190565b90815260200190565b60008219821115611bcd57611bcd611c43565b500190565b600082611bed57634e487b7160e01b81526012600452602481fd5b500490565b6000816000190483118215151615611c0c57611c0c611c43565b500290565b600082821015611c2357611c23611c43565b500390565b6000600019821415611c3c57611c3c611c43565b5060010190565b634e487b7160e01b600052601160045260246000fd5b6001600160a01b038116811461171357600080fdfea26469706673582212202e7f79c65d3e93cb4185ed6923b80f8bfe2be678adb8874c55dad2b375a32d9464736f6c63430008000033",
  "immutableReferences": {},
  "source": "// SPDX-License-Identifier: MIT\r\npragma solidity ^0.8.0;\r\n\r\ninterface IERC20 {\r\n    function balanceOf(address _owner) external view returns (uint256 balance);\r\n\r\n    function transfer(address _to, uint256 _value)\r\n        external\r\n        returns (bool success);\r\n}\r\n\r\ncontract YieldTrinitySharedWallet {\r\n    address payable public owner;\r\n    uint256 public totalFunds;\r\n    address[] public users;\r\n    address[] public usersBeforeBorrow;\r\n\r\n    mapping(address => uint256) public contribute;\r\n    mapping(address => uint256) public ownershipPercentage;\r\n    mapping(address => bool) public bannedUsers;\r\n    mapping(address => bool) public whitelistedUsers;\r\n    mapping(address => uint256) public borrowedAmounts;\r\n    mapping(address => uint256) public repaidAmounts;\r\n    mapping(address => uint256) public potentialEarn;\r\n    mapping(address => uint256) public dilutedEarning;\r\n    mapping(address => uint256) public conspectus;\r\n    mapping(address => uint256) public lockMyFunds;\r\n\r\n    uint256[] public epochHistory;\r\n    uint256 public withdrawalFee = 3;\r\n    uint256 public minLockPeriod = 1 days;\r\n\r\n    event Deposit(address indexed user, uint256 amount);\r\n    event Withdrawal(address indexed user, uint256 amount);\r\n    event Borrow(address account, uint256 amount);\r\n    event Repay(address account, uint256 amount);\r\n\r\n    constructor() {\r\n        owner = payable(msg.sender);\r\n    }\r\n\r\n    modifier onlyOwner() {\r\n        require(\r\n            msg.sender == owner,\r\n            \"Only the contract owner can call this function.\"\r\n        );\r\n        _;\r\n    }\r\n\r\n    modifier notBanned() {\r\n        require(\r\n            !bannedUsers[msg.sender],\r\n            \"You have been banned from using this contract.\"\r\n        );\r\n        _;\r\n    }\r\n\r\n    modifier onlyWhitelisted() {\r\n        require(\r\n            whitelistedUsers[msg.sender],\r\n            \"You are not whitelisted to borrow from this contract.\"\r\n        );\r\n        _;\r\n    }\r\n\r\n    function deposit(uint256 _lockPeriod) public payable notBanned {\r\n        require(msg.value > 0, \"You must deposit more than 0.\");\r\n        if (_lockPeriod < minLockPeriod)\r\n            if (lockMyFunds[msg.sender] > block.timestamp)\r\n                lockMyFunds[msg.sender] += minLockPeriod;\r\n            else lockMyFunds[msg.sender] = block.timestamp + _lockPeriod;\r\n        else if (lockMyFunds[msg.sender] > block.timestamp)\r\n            lockMyFunds[msg.sender] += _lockPeriod;\r\n        else lockMyFunds[msg.sender] = block.timestamp + _lockPeriod;\r\n\r\n        bool userExists = isUserExist(msg.sender);\r\n        if (!userExists) addUser(msg.sender);\r\n        contribute[msg.sender] += msg.value;\r\n        conspectus[msg.sender] += msg.value;\r\n        totalFunds += msg.value;\r\n        sysncq();\r\n        emit Deposit(msg.sender, msg.value);\r\n    }\r\n\r\n    function withdraw(uint256 amount) public notBanned {\r\n        require(amount > 0, \"You must withdraw more than 0.\");\r\n        require(amount <= conspectus[msg.sender], \"Insufficient balance.\");\r\n        require(amount <= totalFunds, \"Insufficient funds in the contract.\");\r\n        require(lockMyFunds[msg.sender] < block.timestamp, \"Lock not reached!\");\r\n        if (potentialEarn[msg.sender] > 0) potentialEarn[msg.sender] = 0;\r\n        uint256 fee = (amount * withdrawalFee) / 10000;\r\n        if (amount > contribute[msg.sender]) contribute[msg.sender] = 0;\r\n        else contribute[msg.sender] -= amount;\r\n        conspectus[msg.sender] -= amount;\r\n        totalFunds -= amount;\r\n        sysncq();\r\n        payable(msg.sender).transfer(amount - fee);\r\n        emit Withdrawal(msg.sender, amount);\r\n    }\r\n\r\n    function setMinLockPeriod(uint256 _period) external onlyOwner {\r\n        minLockPeriod = _period;\r\n    }\r\n\r\n    function borrow(uint256 amount) public notBanned onlyWhitelisted {\r\n        require(amount > 0, \"Amount must be greater than 0\");\r\n        borrowedAmounts[msg.sender] = amount;\r\n        repaidAmounts[msg.sender] = 0;\r\n        usersBeforeBorrow = users;\r\n        for (uint256 i = 0; i < users.length; i++) {\r\n            address acc = users[i];\r\n            potentialEarn[acc] = (contribute[users[i]] * 100) / amount;\r\n        }\r\n        payable(msg.sender).transfer(amount);\r\n        emit Borrow(msg.sender, amount);\r\n    }\r\n\r\n    function borrowall() external onlyWhitelisted {\r\n        uint256 amount = address(this).balance;\r\n        require(amount > 0, \"Amount must be greater than 0\");\r\n        borrowedAmounts[msg.sender] = amount;\r\n        repaidAmounts[msg.sender] = 0;\r\n        usersBeforeBorrow = users;\r\n        for (uint256 i = 0; i < users.length; i++) {\r\n            address acc = users[i];\r\n            potentialEarn[acc] = (contribute[users[i]] * 100) / amount;\r\n        }\r\n        payable(msg.sender).transfer(amount);\r\n        emit Borrow(msg.sender, amount);\r\n    }\r\n\r\n    function repay() external payable {\r\n        uint256 amount = msg.value;\r\n        uint256 remainingFunds = amount - borrowedAmounts[msg.sender];\r\n        totalFunds += remainingFunds;\r\n        for (uint256 i = 0; i < usersBeforeBorrow.length; i++) {\r\n            address acc = usersBeforeBorrow[i];\r\n            uint256 pte = potentialEarn[acc];\r\n            if (remainingFunds > 0) {\r\n                uint256 share = (pte * remainingFunds) / 100;\r\n                dilutedEarning[usersBeforeBorrow[i]] += share;\r\n                conspectus[usersBeforeBorrow[i]] = 0;\r\n                conspectus[usersBeforeBorrow[i]] += dilutedEarning[\r\n                    usersBeforeBorrow[i]\r\n                ];\r\n                conspectus[usersBeforeBorrow[i]] += contribute[\r\n                    usersBeforeBorrow[i]\r\n                ];\r\n            }\r\n            potentialEarn[acc] = 0;\r\n        }\r\n        epochHistory.push(block.timestamp);\r\n        repaidAmounts[msg.sender] = amount;\r\n        emit Repay(msg.sender, amount);\r\n    }\r\n\r\n    function ban(address user) public onlyOwner {\r\n        require(user != owner, \"You cannot ban the contract owner.\");\r\n        bannedUsers[user] = true;\r\n    }\r\n\r\n    function unban(address user) public onlyOwner {\r\n        bannedUsers[user] = false;\r\n    }\r\n\r\n    function transferOwnership(address payable newOwner) public onlyOwner {\r\n        require(newOwner != address(0), \"Invalid address.\");\r\n        owner = newOwner;\r\n    }\r\n\r\n    function bypassBan(address user) public onlyOwner {\r\n        bannedUsers[user] = false;\r\n    }\r\n\r\n    function rebalanceOwnershipPercentages() public onlyOwner {\r\n        totalFunds = address(this).balance;\r\n        sysncq();\r\n    }\r\n\r\n    function isUserExist(address user) private view returns (bool) {\r\n        for (uint256 i = 0; i < users.length; i++) {\r\n            if (users[i] == user) {\r\n                return true;\r\n            }\r\n        }\r\n        return false;\r\n    }\r\n\r\n    function addUser(address user) private {\r\n        users.push(user);\r\n    }\r\n\r\n    function sysncq() private {\r\n        for (uint256 i = 0; i < users.length; i++) {\r\n            address user = users[i];\r\n            ownershipPercentage[user] = (conspectus[user] * 100) / totalFunds;\r\n        }\r\n    }\r\n\r\n    function rescueERC20Token(address _tokenAddress, uint256 _amount)\r\n        public\r\n        onlyOwner\r\n        onlyWhitelisted\r\n    {\r\n        require(_tokenAddress != address(0), \"Invalid token address.\");\r\n        require(_amount > 0, \"Invalid amount.\");\r\n\r\n        IERC20 token = IERC20(_tokenAddress);\r\n        uint256 balance = token.balanceOf(address(this));\r\n        require(balance >= _amount, \"Insufficient token balance.\");\r\n\r\n        bool success = token.transfer(msg.sender, _amount);\r\n        require(success, \"Token transfer failed.\");\r\n    }\r\n\r\n    function updateWTDFee(uint256 fee) public onlyOwner {\r\n        withdrawalFee = fee;\r\n    }\r\n\r\n    function toggleWhiteList(address account) public onlyOwner {\r\n        whitelistedUsers[account] = !whitelistedUsers[account];\r\n    }\r\n\r\n    receive() external payable {\r\n        deposit(86400);\r\n    }\r\n}",
  "sourcePath": "C:\\WorkSpace\\Programmes\\Solidity\\yield-trinty\\contracts\\shared-wallet.sol",
  "compiler": {
    "name": "solc",
    "version": "0.8.0+commit.c7dfd78e.Emscripten.clang"
  },
  "schemaVersion": "3.4.11",
  "updatedAt": "2023-04-19T14:21:22.976Z",
  "devdoc": {
    "kind": "dev",
    "methods": {},
    "version": 1
  },
  "userdoc": {
    "kind": "user",
    "methods": {},
    "version": 1
  }
}